:100000000C9435000C945D000C945D000C945D0024
:100010000C945D000C945D000C945D000C945D00EC
:100020000C945D000C945D000C945D000C945D00DC
:100030000C945D000C945D000C945D000C945D00CC
:100040000C9479010C945D000C94E9010C94C301AB
:100050000C945D000C945D000C945D000C945D00AC
:100060000C945D000C945D001B0211241FBECFEFA9
:10007000D8E0DEBFCDBF11E0A0E0B1E0E2ECF6E0F9
:1000800002C005900D92A633B107D9F721E0A6E38F
:10009000B1E001C01D92AC3DB207E1F710E0C5E34D
:1000A000D0E004C02197FE010E945903C433D10758
:1000B000C9F70E9448020C945F030C940000AF92B1
:1000C000BF92CF92DF92EF92FF920F931F93CF9345
:1000D000DF936C017B018B01040F151FEB015E01A7
:1000E000AE18BF08C017D10759F06991D601ED913C
:1000F000FC910190F081E02DC6010995892B79F7DB
:10010000C501DF91CF911F910F91FF90EF90DF908C
:10011000CF90BF90AF900895FC01538D448D252F53
:1001200030E0842F90E0821B930B541710F0CF9691
:10013000089501970895FC01918D828D981761F0C3
:10014000A28DAE0FBF2FB11D5D968C91928D9F5FDA
:100150009F73928F90E008958FEF9FEF0895FC01B9
:10016000918D828D981731F0828DE80FF11D858D6C
:1001700090E008958FEF9FEF0895FC01918D228DFF
:10018000892F90E0805C9F4F821B91098F73992784
:1001900008958FE391E00E94BD0021E0892B09F4CE
:1001A00020E0822F089580E090E0892B29F00E94C2
:1001B000C90081110C9400000895FC01A48DA80FC2
:1001C000B92FB11DA35ABF4F2C91848D90E0019699
:1001D0008F739927848FA689B7892C93A089B189B9
:1001E0008C91837080648C93938D848D981306C05A
:1001F0000288F389E02D80818F7D80830895EF92BE
:10020000FF920F931F93CF93DF93EC0181E0888FD0
:100210009B8D8C8D98131AC0E889F989808185FFA0
:1002200015C09FB7F894EE89FF896083E889F98942
:1002300080818370806480839FBF81E090E0DF9144
:10024000CF911F910F91FF90EF900895F62E0B8D97
:1002500010E00F5F1F4F0F731127E02E8C8D8E1152
:100260000CC00FB607FCFACFE889F989808185FFB9
:10027000F5CFCE010E94DD00F1CFEB8DEC0FFD2F0D
:10028000F11DE35AFF4FF0829FB7F8940B8FEA8974
:10029000FB8980818062CFCFCF93DF93EC01888D83
:1002A0008823B9F0AA89BB89E889F9898C9185FDF1
:1002B00003C0808186FD0DC00FB607FCF7CF8C917F
:1002C00085FFF2CF808185FFEDCFCE010E94DD005A
:1002D000E9CFDF91CF910895FC0101900020E9F76B
:1002E0003197AF01481B590BBC018FE391E00C948F
:1002F0005F001F920F920FB60F9211242F933F931E
:100300008F939F93AF93BF9380913B0190913C015A
:10031000A0913D01B0913E0130913A0126E0230FBA
:100320002D3758F50296A11DB11D20933A018093F7
:100330003B0190933C01A0933D01B0933E0180911D
:10034000360190913701A0913801B09139010196A1
:10035000A11DB11D8093360190933701A093380100
:10036000B0933901BF91AF919F918F913F912F91A0
:100370000F900FBE0F901F90189529E8230F03963A
:10038000A11DB11DD2CF1F920F920FB60F92112453
:100390002F933F934F935F936F937F938F939F938D
:1003A000AF93BF93EF93FF938FE391E00E94DD0043
:1003B000FF91EF91BF91AF919F918F917F916F913D
:1003C0005F914F913F912F910F900FBE0F901F9013
:1003D00018951F920F920FB60F9211242F938F939F
:1003E0009F93EF93FF93E0914F01F0915001808133
:1003F000E0915501F091560182FD1BC090818091E2
:1004000058018F5F8F7320915901821741F0E0915D
:100410005801F0E0E15CFE4F958F80935801FF9109
:10042000EF919F918F912F910F900FBE0F901F9082
:1004300018958081F4CFEFE3F1E01382128288EE09
:1004400093E0A0E0B0E084839583A683B78384E043
:1004500091E09183808385EC90E09587848784EC9C
:1004600090E09787868780EC90E0918B808B81EC81
:1004700090E0938B828B82EC90E0958B848B86EC62
:1004800090E0978B868B118E128E138E148E0895AA
:10049000CF93DF93CDB7DEB7A1970FB6F894DEBF49
:1004A0000FBECDBF789484B5826084BD84B5816071
:1004B00084BD85B5826085BD85B5816085BD80912F
:1004C0006E00816080936E001092810080918100A7
:1004D000826080938100809181008160809381009F
:1004E000809180008160809380008091B100846061
:1004F0008093B1008091B00081608093B0008091C2
:100500007A00846080937A0080917A008260809380
:100510007A0080917A008E7F80937A0080917A00B1
:10052000806880937A001092C100E0914F01F091B1
:10053000500182E08083E0914B01F0914C011082E8
:10054000E0914D01F0914E0189E1808310925701B5
:10055000E0915301F091540186E08083E0915101D4
:10056000F0915201808180618083E0915101F0918E
:100570005201808188608083E0915101F0915201A5
:10058000808180688083E0915101F09152018081E7
:100590008F7D808382E191E00E946C0183E391E092
:1005A0000E946C018AE0882E912CA12CB12C00E0D5
:1005B00010E08FE391E00E94BD00181619060CF0C0
:1005C0004AC08FE391E00E949B006C01990FEE08F6
:1005D000FF08F7FE2AC06DE28FE391E00E94FF0062
:1005E00022273327A9012C193D094E095F0919A2B9
:1005F000CE0181967C01CA01B901A50194010E9436
:100600003703605DF70162937F01211531054105D4
:10061000510589F7E114F10419F0C7010E946C013A
:1006200083E391E00E946C01C4CFA701960119A257
:10063000CE0181967C01CA01B901A50194010E94F5
:100640003703605DF70162937F0121153105410594
:10065000510589F7DFCF0115110509F4AACF0E94D2
:10066000C900882309F4A5CF0E940000A2CFA1E20F
:100670001A2EAA1BBB1BFD010DC0AA1FBB1FEE1F1C
:10068000FF1FA217B307E407F50720F0A21BB30B67
:10069000E40BF50B661F771F881F991F1A9469F7E3
:1006A00060957095809590959B01AC01BD01CF013F
:1006B0000895EE0FFF1F0590F491E02D0994F89432
:0206C000FFCF6A
:1006C20000000000FF005F008C004C01BD009B0099
:1006D200AF0046697273742074657374207769740D
:1006E2006820726636392066726F6D206A65656CA5
:0606F2006962000D0A0020
:00000001FF
