:100000000C946B000C94EB030C94C4030C949300BD
:100010000C9493000C9493000C9493000C94930014
:100020000C9493000C9493000C9493000C94930004
:100030000C9493000C9493000C9493000C949300F4
:100040000C947A030C9493000C9438040C941204CE
:100050000C9493000C9493000C9493000C949300D4
:100060000C9493000C9493005E01011F01030301A3
:10007000008A02010A010202010064001E47040B0B
:100080000906007C0101060103030100F401060ECC
:100090000102020100C201170101020201019600E2
:1000A000023E0106060100C800038207100310008B
:1000B000C800820710071003016D0112010301013E
:1000C00003010E012401010202010140012401018A
:1000D000020201016A0411241FBECFEFD8E0DEBF87
:1000E000CDBF11E0A0E0B1E0EEEDFBE002C0059075
:1000F0000D92AA33B107D9F722E0AAE3B1E001C01B
:100100001D92A738B207E1F710E0CBE6D0E004C0BB
:100110002197FE010E94E705CA36D107C9F70E9460
:10012000C1040C94ED050C9400000895AF92BF92A9
:10013000CF92DF92EF92FF920F931F93CF93DF93B3
:100140006C017B018B01040F151FEB015E01AE18E2
:10015000BF08C017D10759F06991D601ED91FC9104
:100160000190F081E02DC6010995892B79F7C50131
:10017000DF91CF911F910F91FF90EF90DF90CF9083
:10018000BF90AF900895FC01538D448D252F30E032
:10019000842F90E0821B930B541710F0CF96089594
:1001A00001970895FC01918D828D981761F0A28DC1
:1001B000AE0FBF2FB11D5D968C91928D9F5F9F7387
:1001C000928F90E008958FEF9FEF0895FC01918D3D
:1001D000828D981731F0828DE80FF11D858D90E0AA
:1001E00008958FEF9FEF0895FC01918D228D892F47
:1001F00090E0805C9F4F821B91098F73992708952F
:1002000087ED91E00E94F40021E0892B09F420E0C1
:10021000822F089580E090E0892B29F00E94000150
:1002200081110C9400000895FC01A48DA80FB92F32
:10023000B11DA35ABF4F2C91848D90E001968F730E
:100240009927848FA689B7892C93A089B1898C912D
:10025000837080648C93938D848D981306C002887C
:10026000F389E02D80818F7D80830895EF92FF9246
:100270000F931F93CF93DF93EC0181E0888F9B8DC9
:100280008C8D98131AC0E889F989808185FF15C083
:100290009FB7F894EE89FF896083E889F9898081A6
:1002A0008370806480839FBF81E090E0DF91CF9175
:1002B0001F910F91FF90EF900895F62E0B8D10E097
:1002C0000F5F1F4F0F731127E02E8C8D8E110CC006
:1002D0000FB607FCFACFE889F989808185FFF5CF51
:1002E000CE010E941401F1CFEB8DEC0FFD2FF11D1B
:1002F000E35AFF4FF0829FB7F8940B8FEA89FB898E
:1003000080818062CFCFCF93DF93EC01888D8823EB
:10031000B9F0AA89BB89E889F9898C9185FD03C068
:10032000808186FD0DC00FB607FCF7CF8C9185FF4D
:10033000F2CF808185FFEDCFCE010E941401E9CF7D
:10034000DF91CF9108952F923F924F925F926F92DB
:100350007F928F929F92AF92BF92CF92DF92EF9255
:10036000FF920F931F93CF93DF93CDB7DEB76597BF
:100370000FB6F894DEBF0FBECDBF9FB7F894809044
:10038000CE019090CF01A090D001B090D10186B560
:10039000A89B07C08F3F29F02FEF821A920AA20A6A
:1003A000B20A9FBFBA2CA92C982C8824880E911CC5
:1003B000A11CB11C83E0880C991CAA1CBB1C8A954B
:1003C000D1F78091C6019091C7012401481A590ABA
:1003D0004DEC441640E1540608F4E0C08091C4019D
:1003E0009091C501009789F020913E0130913F0125
:1003F000D201A21BB30B9D01B7FF03C0319521951C
:100400003109283C31050CF0C5C001969093C50117
:100410008093C401029709F0BDC018E6612E10E078
:10042000712E01E010E020903C0130903D013B86B0
:100430002A8649E050E0B301CE0101960E94A8054A
:100440008B816C81681708F4682F70E080913E0101
:1004500090913F010E94B1059B0140910401509190
:100460000501649FC001659F900D749F900D11243C
:1004700064E670E00E94B105898541E050E0882380
:1004800011F042E050E08D81829FD001839FB00D3A
:100490001124BD87AC878E81829FF001839FF00D70
:1004A0001124FF87EE878F81829F1001839F300C7C
:1004B0001124398A288A8885829FD001839FB00DB4
:1004C0001124BB8BAA8BFA01EE0FFF1FE25CFE4FDB
:1004D000C12CD12C76018A859B8501979D8B8C8BB5
:1004E000AC89BD894A175B0708F041C0CC0CDD1C04
:1004F000EE1CFF1C80819181DC012C843D84A219BB
:10050000B309B7FF03C0B195A195B109A617B70705
:1005100070F4A281B3812E843F84A219B309B7FF7E
:1005200003C0B195A195B109A617B707E0F0A88956
:10053000B9898A1B9B0B97FF03C0919581959109FF
:1005400086179707D0F4828193812A883B88821985
:10055000930997FF03C09195819591098617970795
:1005600060F46894C0F84E5F5F4F3496B9CF4A8507
:100570005B854830510508F053C00F5F1F4F59E0AD
:10058000650E711C0D30110509F04DCF1092C5019B
:100590001092C40110923D0110923C0180913C01E7
:1005A00090913D018334910540F010923D011092ED
:1005B0003C011092C5011092C40180913C019091C0
:1005C0003D019C012F5F3F4F30933D0120933C0143
:1005D000880F991FFC01E25CFE4F5182408280929D
:1005E000C6019092C701A092C801B092C901659658
:1005F0000FB6F894DEBF0FBECDBFDF91CF911F9134
:100600000F91FF90EF90DF90CF90BF90AF909F90B1
:100610008F907F906F905F904F903F902F900895B4
:10062000C0927402D0927502E0927602F092770244
:100630002C883D88369427943092CD012092CC01AD
:1006400030933B0120933A011093CB010093CA01F0
:100650009DCFFC0101900020E9F73197AF01481BC5
:10066000590BBC0187ED91E00C9496008F929F92FC
:10067000AF92BF920F931F93CF93DF93CDB7DEB7A7
:10068000A1970FB6F894DEBF0FBECDBF19A24230BE
:1006900008F44AE08E010F5D1F4F842E912CB12C7F
:1006A000A12CA50194010E94C505E62FB901CA013C
:1006B000EA30F4F4E05DD801EE938D01232B242B76
:1006C000252B79F790E080E0109719F0CD010E947A
:1006D0002903A1960FB6F894DEBF0FBECDBFDF9100
:1006E000CF911F910F91BF90AF909F908F900895E1
:1006F000E95CE1CF1F920F920FB60F9211242F9356
:100700003F938F939F93AF93BF938091D301909129
:10071000D401A091D501B091D6013091D20126E04B
:10072000230F2D3758F50296A11DB11D2093D2013C
:100730008093D3019093D401A093D501B093D601B7
:100740008091CE019091CF01A091D001B091D101C3
:100750000196A11DB11D8093CE019093CF01A0936E
:10076000D001B093D101BF91AF919F918F913F91F3
:100770002F910F900FBE0F901F90189529E8230F0F
:100780000396A11DB11DD2CF1F920F920FB60F92EB
:1007900011242F933F934F935F936F937F938F9386
:1007A0009F93AF93BF93EF93FF93E0910201F0917A
:1007B00003010995FF91EF91BF91AF919F918F91A7
:1007C0007F916F915F914F913F912F910F900FBE4D
:1007D0000F901F9018951F920F920FB60F92112431
:1007E0002F933F934F935F936F937F938F939F9339
:1007F000AF93BF93EF93FF93E0910001F09101015C
:100800000995FF91EF91BF91AF919F918F917F914A
:100810006F915F914F913F912F910F900FBE0F906D
:100820001F9018951F920F920FB60F9211242F93BD
:100830003F934F935F936F937F938F939F93AF9368
:10084000BF93EF93FF9387ED91E00E941401FF9116
:10085000EF91BF91AF919F918F917F916F915F9138
:100860004F913F912F910F900FBE0F901F901895B1
:100870001F920F920FB60F9211242F938F939F9375
:10088000EF93FF93E091E701F091E8018081E0911F
:10089000ED01F091EE0182FD1BC090818091F0018D
:1008A0008F5F8F732091F101821741F0E091F00189
:1008B000F0E0E952FE4F958F8093F001FF91EF91A8
:1008C0009F918F912F910F900FBE0F901F901895B1
:1008D0008081F4CF0F931F93CF93DF93E7EDF1E087
:1008E0001382128288EE93E0A0E0B0E084839583C7
:1008F000A683B7838AE091E09183808385EC90E0C2
:100900009587848784EC90E09787868780EC90E0D9
:10091000918B808B81EC90E0938B828B82EC90E0CA
:10092000958B848B86EC90E0978B868B118E128E44
:10093000138E148EC8E7D2E00FEF1FEF1B830A83DC
:100940008AE090E09D838C8349E050E068E670E0A7
:100950008EE792E00E94A805198308838CE390E05B
:100960009093050180930401109274021092750215
:100970001092760210927702DF91CF911F910F9122
:100980000895789484B5826084BD84B5816084BD07
:1009900085B5826085BD85B5816085BD80916E001D
:1009A000816080936E00109281008091810082604E
:1009B000809381008091810081608093810080918B
:1009C00080008160809380008091B100846080937A
:1009D000B1008091B00081608093B00080917A0076
:1009E000846080937A0080917A00826080937A009C
:1009F00080917A008E7F80937A0080917A0080685F
:100A000080937A001092C100E091E701F091E80133
:100A100082E08083E091E301F091E4011082E091B3
:100A2000E501F091E60187E680831092EF01E09105
:100A3000EB01F091EC0186E08083E091E901F09117
:100A4000EA01808180618083E091E901F091EA010F
:100A5000808188608083E091E901F091EA018081E2
:100A600080688083E091E901F091EA0180818F7DC7
:100A70008083109279021092780210927402109280
:100A8000750210927602109277021092CD011092A8
:100A9000CC0183EA91E09093010180930001809161
:100AA00069008C7F816080936900E89AC0E0D0E0A3
:100AB0008091740290917502A0917602B0917702B4
:100AC000892B8A2B8B2BC9F188E191E00E942903A5
:100AD0006091740270917502809176029091770214
:100AE0004AE00E94360382E291E00E94290360916D
:100AF000CC017091CD0190E080E04AE00E94360385
:100B000086E291E00E9429038BE291E00E94290392
:100B10006091CA017091CB0190E080E04AE00E94B0
:100B2000360386E391E00E9429031092740210922A
:100B300075021092760210927702209709F4B8CFCE
:100B40000E940001882309F4B3CF0E940000B0CFB7
:100B5000FB01DC0102C005900D9241505040D8F7D6
:100B60000895AA1BBB1B51E107C0AA1FBB1FA617F4
:100B7000B70710F0A61BB70B881F991F5A95A9F746
:100B800080959095BC01CD010895A1E21A2EAA1B73
:100B9000BB1BFD010DC0AA1FBB1FEE1FFF1FA2172D
:100BA000B307E407F50720F0A21BB30BE40BF50B2A
:100BB000661F771F881F991F1A9469F760957095B3
:100BC000809590959B01AC01BD01CF010895EE0F7A
:0E0BD000FF1F0590F491E02D0994F894FFCFDB
:100BDE00950095003C000000000036019600C30011
:100BEE008301F400D200E6005265636569766564A0
:100BFE002000202F2000626974200050726F746FE5
:0A0C0E00636F6C3A20000D0A00002D
:00000001FF
