:100000000C946B000C94F0030C94C9030C949300B3
:100010000C9493000C9493000C9493000C94930014
:100020000C9493000C9493000C9493000C94930004
:100030000C9493000C9493000C9493000C949300F4
:100040000C947F030C9493000C943D040C941704BF
:100050000C9493000C9493000C9493000C949300D4
:100060000C9493000C9493005E01011F01030301A3
:10007000008A02010A010202010064001E47040B0B
:100080000906007C0101060103030100F401060ECC
:100090000102020100C201170101020201019600E2
:1000A000023E0106060100C800038207100310008B
:1000B000C800820710071003016D0112010301013E
:1000C00003010E012401010202010140012401018A
:1000D000020201016F0411241FBECFEFD8E0DEBF82
:1000E000CDBF11E0A0E0B1E0E2E4FCE002C0059089
:1000F0000D92A034B107D9F722E0A0E4B1E001C02D
:100100001D92AD38B207E1F710E0CBE6D0E004C0B5
:100110002197FE010E941906CA36D107C9F70E942D
:10012000C6040C941F060C9400003FB7F89480910D
:10013000D9019091DA01A091DB01B091DC0126B5E3
:10014000A89B05C02F3F19F00196A11DB11D3FBF0F
:10015000BA2FA92F982F8827BC01CD01620F711DDE
:10016000811D911D43E0660F771F881F991F4A95D7
:10017000D1F708950895AF92BF92CF92DF92EF9298
:10018000FF920F931F93CF93DF936C017B018B0141
:10019000040F151FEB015E01AE18BF08C017D10791
:1001A00059F06991D601ED91FC910190F081E02D1B
:1001B000C6010995892B79F7C501DF91CF911F9170
:1001C0000F91FF90EF90DF90CF90BF90AF90089588
:1001D000FC01538D448D252F30E0842F90E0821B4D
:1001E000930B541710F0CF96089501970895FC01D2
:1001F000918D828D981761F0A28DAE0FBF2FB11D2A
:100200005D968C91928D9F5F9F73928F90E0089581
:100210008FEF9FEF0895FC01918D828D981731F03B
:10022000828DE80FF11D858D90E008958FEF9FEF8F
:100230000895FC01918D228D892F90E0805C9F4F65
:10024000821B91098F73992708958DED91E00E948B
:10025000190121E0892B09F420E0822F089580E024
:1002600090E0892B29F00E94250181110C94000057
:100270000895FC01A48DA80FB92FB11DA35ABF4F3B
:100280002C91848D90E001968F739927848FA68995
:10029000B7892C93A089B1898C91837080648C93E9
:1002A000938D848D981306C00288F389E02D808198
:1002B0008F7D80830895EF92FF920F931F93CF93CA
:1002C000DF93EC0181E0888F9B8D8C8D98131AC091
:1002D000E889F989808185FF15C09FB7F894EE8978
:1002E000FF896083E889F9898081837080648083D5
:1002F0009FBF81E090E0DF91CF911F910F91FF9020
:10030000EF900895F62E0B8D10E00F5F1F4F0F73C7
:100310001127E02E8C8D8E110CC00FB607FCFACF82
:10032000E889F989808185FFF5CFCE010E943901E6
:10033000F1CFEB8DEC0FFD2FF11DE35AFF4FF08253
:100340009FB7F8940B8FEA89FB8980818062CFCFB9
:10035000CF93DF93EC01888D8823B9F0AA89BB89FC
:10036000E889F9898C9185FD03C0808186FD0DC0E7
:100370000FB607FCF7CF8C9185FFF2CF808185FF08
:10038000EDCFCE010E943901E9CFDF91CF910895E1
:100390002F923F924F925F926F927F928F929F9295
:1003A000AF92BF92CF92DF92EF92FF920F931F9383
:1003B000CF93DF93CDB7DEB765970FB6F894DEBF66
:1003C0000FBECDBF0E9495006B017C018091CC01D6
:1003D0009091CD012601481A590A4DEC441640E18E
:1003E000540608F4E0C08091CA019091CB010097B7
:1003F00089F020914401309145011201221A330AFB
:10040000910137FE03C0319521953109283C310512
:100410000CF0C5C001969093CB018093CA0102975E
:1004200009F0BDC098E6692E90E0792E01E010E059
:1004300020904201309043013B862A8649E050E0FB
:10044000B301CE0101960E94DA058B816C81681799
:1004500008F4682F70E080914401909145010E945A
:10046000E3059B014091040150910501649FC00187
:10047000659F900D749F900D112464E670E00E94BA
:10048000E3058985A1E0B0E0882311F0A2E0B0E0A7
:100490008D81829FA001839F500D11245D874C8721
:1004A0008E81829F1001839F300C11243F862E86FF
:1004B0008F81829FA001839F500D1124598B488BFF
:1004C0008885829F1001839F300C11243B8A2A8AE1
:1004D000FD01EE0FFF1FEC5BFE4F812C912C5401B0
:1004E0004A855B85415051095D8B4C8B8C899D8978
:1004F000A817B90708F040C0880C991CAA1CBB1C9F
:1005000080819181AC012C843D844219530957FFAD
:1005100003C05195419551094617570770F4428120
:1005200053812E843F844219530957FF03C05195CC
:100530004195510946175707E0F048895989841BAE
:10054000950B97FF03C091958195910986179707A1
:10055000C8F4828193812A883B888219930997FF86
:1005600003C09195819591098617970758F468946F
:1005700080F812963496BACF4A855B85483051058B
:1005800008F053C00F5F1F4F59E0650E711C0D300E
:10059000110509F04DCF1092CB011092CA011092B3
:1005A00043011092420180914201909143018334B2
:1005B000910540F010924301109242011092CB013C
:1005C0001092CA0180914201909143019C012F5FDA
:1005D0003F4F3093430120934201880F991FFC0144
:1005E000EC5BFE4F51824082C092CC01D092CD0193
:1005F000E092CE01F092CF0165960FB6F894DEBF7F
:100600000FBECDBFDF91CF911F910F91FF90EF9063
:10061000DF90CF90BF90AF909F908F907F906F9022
:100620005F904F903F902F90089580927A02909221
:100630007B02A0927C02B0927D022C883D88369489
:1006400027943092D3012092D2013093410120931C
:1006500040011093D1010093D0019DCFFC01019086
:100660000020E9F73197AF01481B590BBC018DED14
:1006700091E00C94BB008F929F92AF92BF920F9328
:100680001F93CF93DF93CDB7DEB7A1970FB6F89442
:10069000DEBF0FBECDBF19A2423008F44AE08E0182
:1006A0000F5D1F4F842E912CB12CA12CA50194011C
:1006B0000E94F705E62FB901CA01EA30F4F4E05DC3
:1006C000D801EE938D01232B242B252B79F790E075
:1006D00080E0109719F0CD010E942E03A1960FB66D
:1006E000F894DEBF0FBECDBFDF91CF911F910F9168
:1006F000BF90AF909F908F900895E95CE1CF1F92DB
:100700000F920FB60F9211242F933F938F939F93C5
:10071000AF93BF938091D5019091D601A091D7015D
:10072000B091D8013091D40126E0230F2D3758F530
:100730000296A11DB11D2093D4018093D501909301
:10074000D601A093D701B093D8018091D90190919F
:10075000DA01A091DB01B091DC010196A11DB11D70
:100760008093D9019093DA01A093DB01B093DC016F
:10077000BF91AF919F918F913F912F910F900FBE9D
:100780000F901F90189529E8230F0396A11DB11D06
:10079000D2CF1F920F920FB60F9211242F933F9337
:1007A0004F935F936F937F938F939F93AF93BF9379
:1007B000EF93FF93E0910201F09103010995FF91FE
:1007C000EF91BF91AF919F918F917F916F915F91C9
:1007D0004F913F912F910F900FBE0F901F90189542
:1007E0001F920F920FB60F9211242F933F934F93A6
:1007F0005F936F937F938F939F93AF93BF93EF9389
:10080000FF93E0910001F09101010995FF91EF91B3
:10081000BF91AF919F918F917F916F915F914F9118
:100820003F912F910F900FBE0F901F9018951F9220
:100830000F920FB60F9211242F933F934F935F9314
:100840006F937F938F939F93AF93BF93EF93FF9398
:100850008DED91E00E943901FF91EF91BF91AF9131
:100860009F918F917F916F915F914F913F912F91C8
:100870000F900FBE0F901F9018951F920F920FB6FA
:100880000F9211242F938F939F93EF93FF93E091F7
:10089000ED01F091EE018081E091F301F091F4011E
:1008A00082FD1BC090818091F6018F5F8F73209134
:1008B000F701821741F0E091F601F0E0E352FE4FBC
:1008C000958F8093F601FF91EF919F918F912F91DA
:1008D0000F900FBE0F901F9018958081F4CF0F934B
:1008E0001F93CF93DF93EDEDF1E01382128288EE38
:1008F00093E0A0E0B0E084839583A683B7838AE089
:1009000091E09183808385EC90E09587848784ECE7
:1009100090E09787868780EC90E0918B808B81ECCC
:1009200090E0938B828B82EC90E0958B848B86ECAD
:1009300090E0978B868B118E128E138E148ECEE7DD
:10094000D2E00FEF1FEF1B830A838AE090E09D83C4
:100950008C8349E050E068E670E084E892E00E9411
:10096000DA05198308838CE390E090930501809366
:10097000040110927A0210927B0210927C02109273
:100980007D02DF91CF911F910F910895789484B5E6
:10099000826084BD84B5816084BD85B5826085BD7B
:1009A00085B5816085BD80916E00816080936E0009
:1009B00010928100809181008260809381008091FB
:1009C00081008160809381008091800081608093AC
:1009D00080008091B10084608093B1008091B0006C
:1009E00081608093B00080917A00846080937A0067
:1009F00080917A00826080937A0080917A008E7F65
:100A000080937A0080917A00806880937A001092B7
:100A1000C100E091ED01F091EE0182E08083E09170
:100A2000E901F091EA011082E091EB01F091EC0113
:100A300089E180831092F501E091F101F091F201DA
:100A400086E08083E091EF01F091F0018081806188
:100A50008083E091EF01F091F001808188608083D4
:100A6000E091EF01F091F001808180688083E09156
:100A7000EF01F091F00180818F7D808310927F02E1
:100A800010927E0210927A0210927B0210927C02E7
:100A900010927D021092D3011092D20188EC91E065
:100AA0009093010180930001809169008C7F8160A7
:100AB00080936900E89AC0E0D0E088E191E00E946C
:100AC0002E038EE191E00E942E030E9495004B01BF
:100AD0005C0188EEC82E83E0D82EE12CF12C0E9418
:100AE0009500681979098A099B09683E7340810558
:100AF0009105A8F321E0C21AD108E108F10888EEB7
:100B0000880E83E0981EA11CB11CC114D104E1041D
:100B1000F10429F780917A0290917B02A0917C02E6
:100B2000B0917D02892B8A2B8B2BC9F181E291E058
:100B30000E942E0360917A0270917B0280917C0268
:100B400090917D024AE00E943B038BE291E00E947B
:100B50002E036091D2017091D30190E080E04AE0D1
:100B60000E943B038FE291E00E942E0384E391E018
:100B70000E942E036091D0017091D10190E080E03D
:100B80004AE00E943B038EE191E00E942E03109206
:100B90007A0210927B0210927C0210927D022097C2
:100BA00009F48BCF0E942501882309F486CF0E9487
:100BB000000083CFFB01DC0102C005900D92415083
:100BC0005040D8F70895AA1BBB1B51E107C0AA1FCC
:100BD000BB1FA617B70710F0A61BB70B881F991FDE
:100BE0005A95A9F780959095BC01CD010895A1E291
:100BF0001A2EAA1BBB1BFD010DC0AA1FBB1FEE1F97
:100C0000FF1FA217B307E407F50720F0A21BB30BE1
:100C1000E40BF50B661F771F881F991F1A9469F75D
:100C200060957095809590959B01AC01BD01CF01B9
:100C30000895EE0FFF1F0590F491E02D0994F894AC
:020C4000FFCFE4
:100C4200BA00BA003C00000000005B01BB00E800F3
:100C5200A8011901F7000B0168656C6C6F000D0AA1
:100C62000052656365697665642000202F2000626A
:100C72006974200050726F746F636F6C3A200000C9
:00000001FF
