:100000000C945D000C9485000C9485000C94850084
:100010000C9485000C9485000C9485000C9485004C
:100020000C9485000C9485000C9485000C9485003C
:100030000C9485000C9485000C9485000C9485002C
:100040000C9448020C9485000C94B8020C94920213
:100050000C9485000C9485000C9485000C9485000C
:100060000C9485000C9485000000000024002700FB
:100070002A0000000000250028002B0004040404CE
:100080000404040402020202020203030303030342
:10009000010204081020408001020408102001021F
:1000A00004081020000000080002010000030407FB
:1000B0000000000000000000EA0211241FBECFEF84
:1000C000D8E0DEBFCDBF11E0A0E0B1E0E6E9F9E0A5
:1000D00002C005900D92AA33B107D9F721E0AAE337
:1000E000B1E001C01D92A43EB207E1F710E0CDE5FA
:1000F000D0E004C02197FE010E94C304CC35D10793
:10010000C9F70E941D030C94C9040C940000EEEA88
:10011000F0E02491EAE9F0E09491E6E8F0E0E4917F
:10012000EE23C9F0222339F0233001F1A8F4213065
:1001300019F1223029F1F0E0EE0FFF1FEE58FF4FCA
:10014000A591B4912FB7F894EC91811126C09095A8
:100150009E239C932FBF08952730A9F02830C9F023
:10016000243049F7209180002F7D03C0209180002A
:100170002F7720938000DFCF24B52F7724BDDBCFEE
:1001800024B52F7DFBCF2091B0002F772093B000B6
:10019000D2CF2091B0002F7DF9CF9E2BDACF90E007
:1001A000FC01E057FF4F249184589F4FFC0184913C
:1001B000882399F090E0880F991FFC01E859FF4FC0
:1001C000A591B491FC01EE58FF4F859194918FB7A2
:1001D000F894EC91E22BEC938FBF0895AF92BF920D
:1001E000CF92DF92EF92FF920F931F93CF93DF9303
:1001F0006C017B018B01040F151FEB015E01AE1832
:10020000BF08C017D10759F06991D601ED91FC9153
:100210000190F081E02DC6010995892B79F7C50180
:10022000DF91CF911F910F91FF90EF90DF90CF90D2
:10023000BF90AF900895FC01538D448D252F30E081
:10024000842F90E0821B930B541710F0CF960895E3
:1002500001970895FC01918D828D981761F0A28D10
:10026000AE0FBF2FB11D5D968C91928D9F5F9F73D6
:10027000928F90E008958FEF9FEF0895FC01918D8C
:10028000828D981731F0828DE80FF11D858D90E0F9
:1002900008958FEF9FEF0895FC01918D228D892F96
:1002A00090E0805C9F4F821B91098F73992708957E
:1002B00085E491E00E944C0121E0892B09F420E0C3
:1002C000822F089580E090E0892B29F00E94580148
:1002D00081110C9400000895FC01A48DA80FB92F82
:1002E000B11DA35ABF4F2C91848D90E001968F735E
:1002F0009927848FA689B7892C93A089B1898C917D
:10030000837080648C93938D848D981306C00288CB
:10031000F389E02D80818F7D80830895EF92FF9295
:100320000F931F93CF93DF93EC0181E0888F9B8D18
:100330008C8D98131AC0E889F989808185FF15C0D2
:100340009FB7F894EE89FF896083E889F9898081F5
:100350008370806480839FBF81E090E0DF91CF91C4
:100360001F910F91FF90EF900895F62E0B8D10E0E6
:100370000F5F1F4F0F731127E02E8C8D8E110CC055
:100380000FB607FCFACFE889F989808185FFF5CFA0
:10039000CE010E946C01F1CFEB8DEC0FFD2FF11D12
:1003A000E35AFF4FF0829FB7F8940B8FEA89FB89DD
:1003B00080818062CFCFCF93DF93EC01888D88233B
:1003C000B9F0AA89BB89E889F9898C9185FD03C0B8
:1003D000808186FD0DC00FB607FCF7CF8C9185FF9D
:1003E000F2CF808185FFEDCFCE010E946C01E9CF75
:1003F000DF91CF9108958FB7F89480913A018FBF24
:1004000008958EBD00000DB407FEFDCF8EB5089592
:100410008CBD9DBD0895CF938091E2019091E30141
:100420000E94080280E00E9487008FE20E94010281
:1004300080E00E940102C82F81E00E9487008C2F7B
:10044000CF910895CF93DF93D82FC62F8091E201EB
:100450009091E3010E94080280E00E9487008D2FA6
:1004600080680E9401028C2F0E94010281E0DF91CE
:10047000CF910C948700FC0101900020E9F731979F
:10048000AF01481B590BBC0185E491E00C94EE00D0
:100490001F920F920FB60F9211242F933F938F93B9
:1004A0009F93AF93BF938091410190914201A0919E
:1004B0004301B09144013091400126E0230F2D37D4
:1004C00058F50296A11DB11D209340018093410172
:1004D00090934201A0934301B093440180913C0169
:1004E00090913D01A0913E01B0913F010196A11D67
:1004F000B11D80933C0190933D01A0933E01B093C8
:100500003F01BF91AF919F918F913F912F910F909C
:100510000FBE0F901F90189529E8230F0396A11D79
:10052000B11DD2CF1F920F920FB60F9211242F93AD
:100530003F934F935F936F937F938F939F93AF936B
:10054000BF93EF93FF9385E491E00E946C01FF91CC
:10055000EF91BF91AF919F918F917F916F915F913B
:100560004F913F912F910F900FBE0F901F901895B4
:100570001F920F920FB60F9211242F938F939F9378
:10058000EF93FF93E0915501F09156018081E09146
:100590005B01F0915C0182FD1BC0908180915E0146
:1005A0008F5F8F7320915F01821741F0E0915E01B0
:1005B000F0E0EB5BFE4F958F80935E01FF91EF9132
:1005C0009F918F912F910F900FBE0F901F901895B4
:1005D0008081F4CFE5E4F1E01382128288EE93E0AB
:1005E000A0E0B0E084839583A683B7838AE091E09E
:1005F0009183808385EC90E09587848784EC90E0FC
:100600009787868780EC90E0918B808B81EC90E0DF
:10061000938B828B82EC90E0958B848B86EC90E0C0
:10062000978B868B118E128E138E148EE2EEF1E074
:1006300080E5808381E081830895CF93DF93CDB7F8
:10064000DEB7A1970FB6F894DEBF0FBECDBF78948A
:1006500084B5826084BD84B5816084BD85B58260C7
:1006600085BD85B5816085BD80916E008160809378
:100670006E001092810080918100826080938100E1
:1006800080918100816080938100809180008160F1
:10069000809380008091B10084608093B10080914C
:1006A000B00081608093B00080917A008460809374
:1006B0007A0080917A00826080937A0080917A003B
:1006C0008E7F80937A0080917A00806880937A0090
:1006D0001092C100E0915501F091560182E08083B3
:1006E000E0915101F09152011082E0915301F0919B
:1006F00054018CE6808310925D01E0915901F091E4
:100700005A0186E08083E0915701F0915801808181
:1007100080618083E0915701F09158018081886069
:100720008083E0915701F091580180818068808337
:10073000E0915701F091580180818F7D80831FB730
:10074000F89480913B01811123C0E6E8F0E08491A8
:10075000EAE9F0E09491E82FF0E0EE0FFF1FE8598E
:10076000FF4FA591B491EC91E92319F481E00E9427
:1007700087008AE00E94CF008CB580618CBD8CB56B
:1007800080648CBD8DE00E94CF008BE00E94CF0082
:1007900080913B018F5F80933B011FBF6AEA8FE22C
:1007A0000E9422020E940B028A3AC1F765E58FE29D
:1007B0000E9422020E940B028535C1F764E081E0AD
:1007C0000E94220260E082E00E9422026DE783E044
:1007D0000E94220260E084E00E94220261E085E043
:1007E0000E9422026AE986E00E9422026CE687E00B
:1007F0000E9422026AE788E00E9422026FEF89E0ED
:100800000E94220262E489E10E94220260E087E302
:100810000E94220260E188E20E94220260E08DE2F2
:100820000E9422026AEA8EE20E94220290E0E92EF1
:1008300091E0F92E1FE2F70161917F01812F0E9463
:1008400022021F5F1533B9F76BE188E30E94220291
:1008500060E88CE30E94220260E28FE60E9422029E
:1008600060E181E00E94220288E191E00E943B0267
:1008700087E391E00E943B028AE0882E912CA12C14
:10088000B12C00E010E085E491E00E944C011816C4
:1008900019060CF04AC085E491E00E942A016C011F
:1008A000990FEE08FF08F7FE2AC06DE285E491E09B
:1008B0000E948E0122273327A9012C193D094E09D8
:1008C0005F0919A2CE0181967C01CA01B901A50177
:1008D00094010E94A104605DF70162937F012115DC
:1008E00031054105510589F7E114F10419F0C701FB
:1008F0000E943B0287E391E00E943B02C4CFA70124
:10090000960119A2CE0181967C01CA01B901A50107
:1009100094010E94A104605DF70162937F0121159B
:1009200031054105510589F7DFCF0115110509F49E
:10093000AACF0E945801882309F4A5CF0E94000085
:10094000A2CFA1E21A2EAA1BBB1BFD010DC0AA1F3C
:10095000BB1FEE1FFF1FA217B307E407F50720F028
:10096000A21BB30BE40BF50B661F771F881F991FA3
:100970001A9469F760957095809590959B01AC01EC
:10098000BD01CF010895EE0FFF1F0590F491E02DFA
:060990000994F894FFCF6A
:100996006CB6CB2C92D9000000008E01EE001B0134
:1009A600DB014C012A013E0144616E666F737320C0
:1009B600746865726D6F73746174207472616E739E
:0A09C600636569766572000D0A0092
:00000001FF
