:100000000C9435000C9403020C94DC010C945D00FC
:100010000C945D000C945D000C945D000C945D00EC
:100020000C945D000C945D000C945D000C945D00DC
:100030000C945D000C945D000C945D000C945D00CC
:100040000C9492010C945D000C9450020C942A02C2
:100050000C945D000C945D000C945D000C945D00AC
:100060000C945D000C945D003A0311241FBECFEF89
:10007000D8E0DEBFCDBF11E0A0E0B1E0EEEDF6E0EC
:1000800002C005900D92A032B107D9F721E0A0E29D
:10009000B1E001C01D92A03DB207E1F710E0C5E359
:1000A000D0E004C02197FE010E946703C433D1074A
:1000B000C9F70E9482020C946D030C9400003FB7B4
:1000C000F8948091CC019091CD01A091CE01B09196
:1000D000CF0126B5A89B05C02F3F19F00196A11DA1
:1000E000B11D3FBFBA2FA92F982F8827BC01CD0182
:1000F000620F711D811D911D43E0660F771F881FE0
:10010000991F4A95D1F708950895AF92BF92CF9263
:10011000DF92EF92FF920F931F93CF93DF936C01C7
:100120007B018B01040F151FEB015E01AE18BF08A8
:10013000C017D10759F06991D601ED91FC9101905A
:10014000F081E02DC6010995892B79F7C501DF9172
:10015000CF911F910F91FF90EF90DF90CF90BF90C4
:10016000AF900895FC01538D448D252F30E0842FEE
:1001700090E0821B930B541710F0CF9608950197CF
:100180000895FC01918D828D981761F0A28DAE0FBC
:10019000BF2FB11D5D968C91928D9F5F9F73928F43
:1001A00090E008958FEF9FEF0895FC01918D828D6F
:1001B000981731F0828DE80FF11D858D90E008953C
:1001C0008FEF9FEF0895FC01918D228D892F90E094
:1001D000805C9F4F821B91098F73992708958AE253
:1001E00091E00E94E30021E0892B09F420E0822FB6
:1001F000089580E090E0892B29F00E94EF008111A2
:100200000C9400000895FC01A48DA80FB92FB11D16
:10021000A35ABF4F2C91848D90E001968F7399273C
:10022000848FA689B7892C93A089B1898C9183701A
:1002300080648C93938D848D981306C00288F38913
:10024000E02D80818F7D80830895EF92FF920F9340
:100250001F93CF93DF93EC0181E0888F9B8D8C8D72
:1002600098131AC0E889F989808185FF15C09FB766
:10027000F894EE89FF896083E889F9898081837029
:10028000806480839FBF81E090E0DF91CF911F91D8
:100290000F91FF90EF900895F62E0B8D10E00F5FF9
:1002A0001F4F0F731127E02E8C8D8E110CC00FB6CF
:1002B00007FCFACFE889F989808185FFF5CFCE0167
:1002C0000E940301F1CFEB8DEC0FFD2FF11DE35ADE
:1002D000FF4FF0829FB7F8940B8FEA89FB898081EA
:1002E0008062CFCFCF93DF93EC01888D8823B9F064
:1002F000AA89BB89E889F9898C9185FD03C0808131
:1003000086FD0DC00FB607FCF7CF8C9185FFF2CFAD
:10031000808185FFEDCFCE010E940301E9CFDF91FF
:10032000CF9108951F920F920FB60F9211242F9321
:100330003F938F939F93AF93BF938091C801909108
:10034000C901A091CA01B091CB013091C70126E04B
:10035000230F2D3758F50296A11DB11D2093C7011B
:100360008093C8019093C901A093CA01B093CB01B7
:100370008091CC019091CD01A091CE01B091CF019F
:100380000196A11DB11D8093CC019093CD01A09346
:10039000CE01B093CF01BF91AF919F918F913F91CB
:1003A0002F910F900FBE0F901F90189529E8230FE3
:1003B0000396A11DB11DD2CF1F920F920FB60F92BF
:1003C00011242F933F934F935F936F937F938F935A
:1003D0009F93AF93BF93EF93FF93E0910201F0914E
:1003E00003010995FF91EF91BF91AF919F918F917B
:1003F0007F916F915F914F913F912F910F900FBE21
:100400000F901F9018951F920F920FB60F92112404
:100410002F933F934F935F936F937F938F939F930C
:10042000AF93BF93EF93FF93E0910001F09101012F
:100430000995FF91EF91BF91AF919F918F917F911E
:100440006F915F914F913F912F910F900FBE0F9041
:100450001F9018951F920F920FB60F9211242F9391
:100460003F934F935F936F937F938F939F93AF933C
:10047000BF93EF93FF938AE291E00E940301FF9103
:10048000EF91BF91AF919F918F917F916F915F910C
:100490004F913F912F910F900FBE0F901F90189585
:1004A0001F920F920FB60F9211242F938F939F9349
:1004B000EF93FF93E0913A01F0913B018081E0914D
:1004C0004001F091410182FD1BC090818091430168
:1004D0008F5F8F7320914401821741F0E0914301B7
:1004E000F0E0E65DFE4F958F80934301FF91EF9121
:1004F0009F918F912F910F900FBE0F901F90189585
:100500008081F4CF789484B5826084BD84B58160A5
:1005100084BD85B5826085BD85B5816085BD8091CE
:100520006E00816080936E00109281008091810046
:10053000826080938100809181008160809381003E
:10054000809180008160809380008091B100846000
:100550008093B1008091B00081608093B000809161
:100560007A00846080937A0080917A008260809320
:100570007A0080917A008E7F80937A0080917A0051
:10058000806880937A001092C100E0913A01F09166
:100590003B0182E08083E0913601F09137011082C7
:1005A000E0913801F091390189E180831092420194
:1005B000E0913E01F0913F0186E08083E0913C01B3
:1005C000F0913D01808180618083E0913C01F09158
:1005D0003D01808188608083E0913C01F0913D0184
:1005E000808180688083E0913C01F0913D018081B1
:1005F0008F7D8083C0E0D0E045E050E066E171E0AF
:100600008AE291E00E94850042E050E06CE171E0F6
:100610008AE291E00E9485000E945F004B015C012C
:1006200088EEC82E83E0D82EE12CF12C0E945F00CA
:10063000681979098A099B09683E7340810591050B
:10064000A8F321E0C21AD108E108F10888EE880E6B
:1006500083E0981EA11CB11CC114D104E104F10473
:1006600029F7209749F20E94EF00882329F20E947F
:100670000000C2CFEAE2F1E01382128288EE93E03A
:10068000A0E0B0E084839583A683B78388E091E0FF
:100690009183808385EC90E09587848784EC90E05B
:1006A0009787868780EC90E0918B808B81EC90E03F
:1006B000938B828B82EC90E0958B848B86EC90E020
:1006C000978B868B118E128E138E148E0895EE0FDB
:0E06D000FF1F0590F491E02D0994F894FFCFE0
:1006DE00840084000000000025018500B200720134
:1006EE00E300C100D50068656C6C6F000D0A000058
:00000001FF
